:1070000055C00000B0C00000AEC00000ACC0000021
:10701000AAC00000A8C00000A6C00000A4C00000D4
:10702000A2C00000A0C00000CFC100009CC00000B2
:107030009AC0000098C0000096C0000094C00000F4
:1070400092C0000090C000008EC000008CC0000004
:107050008AC0000088C0000086C0000084C0000014
:1070600082C0000049C4000034C400007CC000009D
:107070007AC0000078C0000076C0000074C0000034
:1070800072C0000070C000006EC000006CC0000044
:107090006AC0000068C0000066C0000064C0000054
:1070A00062C0000060C000005EC0000011241FBE6E
:1070B000CFEFDAE0DEBFCDBF2091FF0A1092FF0ACA
:1070C000909100801092008084B714BE0FB6F8949F
:1070D000A895309160003861309360001092600094
:1070E0000FBE5D9A289AE0E0F0E0459154914F3F41
:1070F0005F4F21F181FF18C0273701F19737F1F079
:1071000087E78093FF0A809300808FEF9EE924E257
:10711000815090402040E1F700C000001092FF0A2B
:10712000109200804ED10AC080FF02C04AD106C032
:1071300083FF04C0273711F09737C1F713E0A2E8A7
:10714000B2E0E2EFFEE702C005900D92A032B10777
:10715000D9F723E0A0E2B3E001C01D92A133B2074A
:10716000E1F7D3D3C4C64CCF8091280387FF0FC06B
:107170008091E80082FD04C08BB58111F9CF10C069
:107180008091E8008B770AC08BB5882349F0809105
:10719000E80080FFF9CF8091E8008E778093E800C7
:1071A00008958F708093E900EBEEF0E080818160BC
:1071B0008083EDEEF0E010826093EC0040838091DC
:1071C000EE00881F8827881F089520912E03309194
:1071D0002F032617370748F06115710539F4209100
:1071E000E8002E772093E80001C0B901FC0120E0FF
:1071F0006115710571F18BB58823E9F18530E9F1ED
:107200008091E80083FD3BC08091E80082FD2DC0A5
:107210008091E80080FFECCF2091F3008091F20094
:1072200090E0922B6115710551F08830910538F48A
:1072300021912093F100615071090196F3CF21E073
:10724000089709F020E08091E8008E778093E800AD
:10725000CFCF2111D0CF09C08BB5882361F0853005
:1072600061F08091E80083FD0AC08091E80082FF10
:10727000F3CF80E0089582E0089583E0089581E0EF
:107280000895CF935B9A1092C9001092C800109293
:10729000CA001EBA10922703109226031ABC20912E
:1072A000830230918402409185025091860221151B
:1072B00031054105510519F4109225034FC02115E0
:1072C00081EE38074105510521F481E080932503C3
:1072D00045C082E08093250380918802813021F0AF
:1072E000823021F4C0E203C0C0E301C0C0E080915D
:1072F0008702823009F4C86080918902873031F0BA
:10730000883031F0863029F4C26003C0C46001C007
:10731000C660DA01C901B695A79597958795BC0116
:10732000CD0160587B47814E9F4FBFD52150310919
:1073300020FD04C0211580E1380720F036952795FF
:1073400080E001C082E03093CD002093CC00C09358
:10735000CA008093C80088E98093C9005B98CF91E8
:10736000089593E09093E9009BB5992391F0909153
:10737000E80090FFF9CF8093F10081E0860D8F3314
:1073800010F4682E0895612C8091E8008E77809328
:10739000E800089584E08093E9008091E80085FD8D
:1073A0000DC08091E8008B778093E8008091E80021
:1073B00082FDF3CF8BB58111F9CF02C08091F1002E
:1073C0000895E0E0F0E009941F920F920FB60F923B
:1073D00011242F933F934F935F936F937F938F93DA
:1073E0009F93AF93BF93EF93FF938091DA0080FF59
:1073F00019C08091D80080FF15C08091DA008E7F7F
:107400008093DA008091D90080FF0AC080E189BDB5
:1074100082E189BD09B400FEFDCF81E08BBD02C0D1
:1074200019BC1BBC8091E10080FF16C08091E20076
:1074300080FF12C08091E2008E7F8093E2008091F5
:10744000E20080618093E2008091D80080628093A6
:10745000D80019BC85E08BBD8091E10084FF2DC070
:107460008091E20084FF29C080E189BD82E189BD6D
:1074700009B400FEFDCF8091D8008F7D8093D800A5
:107480008091E1008F7E8093E1008091E2008F7E09
:107490008093E2008091E20081608093E20080911D
:1074A0003003882311F084E007C08091E30087FD5A
:1074B00002C081E001C083E08BBD8091E10083FFC9
:1074C00020C08091E20083FF1CC08091E100877F93
:1074D0008093E10082E08BBD109230038091E10047
:1074E0008E7F8093E1008091E2008E7F8093E200A6
:1074F0008091E20080618093E20042E060E080E001
:1075000050DEFF91EF91BF91AF919F918F917F914D
:107510006F915F914F913F912F910F900FBE0F9000
:107520001F9018959FB7F89407B600FCFDCFF99906
:10753000FECF809529E0E1E0F0E0082E209357008F
:10754000E8959FBF0895E1E0F0E089E0809357005F
:107550008491089529E0FC012093570084910895B7
:1075600021E2FC01209357008491089507B600FCA6
:10757000FDCFF999FECF21E0FB010A0120935700CE
:10758000E895112408952FB7F89407B600FCFDCFB5
:10759000F999FECF35E0FB0130935700E89507B627
:1075A00000FCFDCF91E190935700E8952FBF08951F
:1075B0002FB7F89407B600FCFDCFF999FECF33E062
:1075C000FB0130935700E89507B600FCFDCF91E131
:1075D00090935700E8952FBF08957F928F929F92C6
:1075E000AF92BF92CF92DF92EF92FF920F931F93D1
:1075F000CF93DF93612CCEDE082F853419F41092DF
:10760000820207C088E8800F823010F0043521F430
:10761000C1DE8DE0A6DE36C10035D9F30C34C9F3E6
:10762000043721F484E49DDE80E0F4CF013611F4C8
:1076300089E5F0CF0134D1F4ADDEC82FABDE2C2FBD
:1076400030E0322F2227330F90E0880F991F822BD2
:10765000932B092E000CAA0BBB0B80932103909354
:107660002203A0932303B0932403D3CF003711F454
:1076700083E5D0CF033549F4C8E1D3E0899171DEC9
:1076800083E0CF31D807D1F7FDC0063521F481E37F
:1076900068DE80E3BFCF033731F487E862DE85E937
:1076A00060DE8EE1B7CF053691F4C12CD12C760186
:1076B000C701B6017DDF80E8C80ED11CE11CF11CBA
:1076C000C11480E7D806E104F10491F7A2CF023794
:1076D00011F439DF9FCF063419F4E0E0F0E009C07F
:1076E0000E3419F4E3E0F0E004C0013539F4E2E0CF
:1076F000F0E089E08093570084918CCF023631F41A
:1077000089E52FDE80E02DDE80E884CF023419F099
:10771000073609F0B4C03EDEF82E3CDEC82F3ADE54
:10772000182F8BEB810F823010F08FE373CFD0E0F6
:10773000DF29073609F03EC000E0BB24B394209750
:1077400009F4A0C0C0902103D0902203E09023034D
:10775000F09024031634B9F4E02FF0E0EC29FD2971
:107760008491FFDD002369F082E0C80ED11CE11C8A
:10777000F11CC0922103D0922203E0922303F092E5
:1077800024030B2515C0D701C601B695A79597957B
:10779000879571D3E6DD82E0C80ED11CE11CF11C97
:1077A000C0922103D0922203E0922303F09224039B
:1077B0002197C5CF8090210390902203A0902303AE
:1077C000B0902403163419F4C501B401F1DE712C14
:1077D00000E0209709F44CC0163431F50023E9F09D
:1077E000D9DDC0902103D0902203E0902303F090D4
:1077F0002403472D50E0582BC701B601B7DE82E0C5
:10780000C80ED11CE11CF11CC0922103D0922203AE
:10781000E0922303F092240302C0BCDD782E81E0C5
:10782000011180E0082F22C0B5DD682F809121036F
:1078300090912203A0912303B0912403B695A795BC
:107840009795879520D38091210390912203A09151
:107850002303B09124030296A11DB11D809321033F
:1078600090932203A0932303B09324032197B1CFD5
:10787000163409F0CECEC501B40185DECACE0B3177
:1078800009F053CF662079F083E08093E9008BB54F
:10789000882389F08091E80080FFF9CF8091E8008B
:1078A0008E778093E80084E08093E9008091E8007F
:1078B0008B778093E800DF91CF911F910F91FF901C
:1078C000EF90DF90CF90BF90AF909F908F907F9080
:1078D00008952F01EEB3F2E031903092CE00EEBB6E
:1078E000F798F2012EB23090270323101895E8E99B
:1078F000E093C900F20118953090CE002F01EAB54F
:10790000F1E03192EABDF201189590E080E80FB6FF
:10791000F89480936100909361000FBE91E095BF51
:1079200082E085BF8091D8008F7E8093D8008091BF
:10793000D70081608093D70014E012BF909320039A
:107940008091D8008E7F8093D8001092E200109230
:10795000DA001092E1008091D8008F778093D800F0
:107960008091D80080688093D8008091D8008F7D66
:107970008093D80019BC1BBC109230038091E000AA
:107980008B7F8093E0008091D80081608093D80045
:1079900042E060E080E005DC8091E1008E7F809332
:1079A000E1008091E20081608093E2008091E2003A
:1079B00088608093E2008091E0008E7F8093E000F9
:1079C0008091D80080618093D80015BD549A5C984E
:1079D00088E38AB9209A5C9A5A9A7894F12CE12C1F
:1079E00001E010E0DBB41092E9008091E80083FF31
:1079F0007EC1E8E2F3E08091F100819323E0E0337F
:107A0000F207C9F780912803982F9F77913209F0E8
:107A10006AC090912903913299F4813A09F063C0C8
:107A20008091E800877F8093E80067E070E083E85A
:107A300092E0CBDB8091E8008B778093E80053C025
:107A4000903209F03DC0813209F04DC08091E800CC
:107A5000877F8093E800E3E8F2E027E0222331F11A
:107A60008BB5882331F1853021F18091E80083FDC9
:107A700020C08091E80082FFF1CF3091F300809127
:107A8000F20090E0932B892B29F08091F1008193F3
:107A9000215099F78091E8008B778093E800DECF42
:107AA000853039F08091E80080FD03C08BB58111ED
:107AB000F7CF8091E8008E778093E800E2DB13C077
:107AC000923289F4813279F48091E800877F809343
:107AD000E8004ADB80912A0380FF04C05C9830E410
:107AE0003A95F1F75C9A8091E80083FFF2C08091AB
:107AF000280390912903953009F46AC030F491303D
:107B000071F168F0933059F1E4C0983009F4A6C0DF
:107B1000993009F4B5C0963009F0DBC07BC08038DD
:107B200099F0823809F0D5C080912C038F7087308E
:107B300008F0CFC08093E9008091EB0085FB882797
:107B400080F91092E90001C080E09091E800977FF1
:107B50009093E8008093F1001092F1008AC0282FE2
:107B60002D7F09F0B6C0823009F0B3C080912A039E
:107B7000811128C080912C038F702FEF280F2630A1
:107B800008F0A7C08093E9002091EB0020FF1AC005
:107B9000933021F48091EB00806212C09091EB0051
:107BA00090619093EB00980102C0220F331F8A95D9
:107BB000E2F72093EA001092EA008091EB008860DF
:107BC0008093EB001092E9008091E800877F54C019
:107BD00081117FC080912A038F77C82E8091E300A6
:107BE00080788C298093E3008091E800877F8093E0
:107BF000E800BADA8091E80080FFFCCF8091E300D2
:107C000080688093E300C11002C082E001C083E07D
:107C10008BBD5FC08058823008F05BC080912A0322
:107C200030912B03C32F90E0D92FC230D10539F00A
:107C3000C330D10549F0219709F04BC0FDC06EE378
:107C400070E088EC92E00BC1882309F4FAC081301F
:107C500009F4FCC0823009F03CC0FDC08038C9F591
:107C60008091E800877F8093E800809130038093C3
:107C7000F1008091E8008E778093E80075DA29C0E2
:107C8000811127C080912A0390912B039927029795
:107C900004F58091E800877F8093E800C0902A0374
:107CA000C092300361DAC11006C08091E30087FD05
:107CB00002C081E001C084E08BBD42E061EC82E063
:107CC00070DA46E361E883E06CDA42E260E884E07F
:107CD00068DA8091E80083FF0AC08091E800877F1E
:107CE0008093E8008091EB0080628093EB008BB57D
:107CF000843079F024E0D21275CE10928302109273
:107D000084021092850210928602BBDA5D9A289A4C
:107D100065CE90918202911116C08FE99FE0019784
:107D2000F1F700C000008091E00081608093E000E6
:107D30009CE088E10FB6F894A895809360000FBE90
:107D400090936000FFCF8093E9008091E80082FF6C
:107D50000CC08091F3008091F200811107C09091D6
:107D6000E8009B779093E80001C080E090912503A4
:107D7000913029F4882309F44DC02FDC4BC0923098
:107D800009F048C0909127032EB3921B90959F77DE
:107D90008823B1F09817A0F0F2E0E09127039091CA
:107DA000F1009193EF778150D1F78091E8008B77C4
:107DB0008093E800E093270388EB8093C90002C01A
:107DC0009F3719F0289893E0F92E8AB590912603F1
:107DD000891B01F1A89902C08F33C8F093E09093FA
:107DE000E9009091E80090FF12C08F3308F08FE314
:107DF000E0912603F1E091919093F1008150D1F749
:107E00008091E8008E778093E800E09326035D98E8
:107E100083E0E82EA89BE6CD81E085BBEE2021F033
:107E2000EA94E11001C05D9AFF2009F4DBCDFA94D9
:107E3000F110D8CD289AD6CD62E170E086E093E0CB
:107E40000EC064E070E080EB92E009C062E170E097
:107E500084EB92E004C064E270E08AE892E0209152
:107E6000E800277F2093E800B0D98091E8008B7765
:107E70008093E8002ECFF999FECF92BD81BDF89A8C
:107E8000992780B50895262FF999FECF92BD81BD1F
:107E9000F89A019700B4021639F01FBA20BD0FB648
:107EA000F894FA9AF99A0FBE0895A1E21A2EAA1B25
:107EB000BB1BFD010DC0AA1FBB1FEE1FFF1FA2179A
:107EC000B307E407F50720F0A21BB30BE40BF50B97
:107ED000661F771F881F991F1A9469F76095709520
:107EE000809590959B01AC01BD01CF010895F89458
:027EF000FFCFC2
:107EF2000100000000000008240348006F006F002A
:107F020064004C006F006100640065007200320082
:107F120020004D006900630072006F00000004033E
:107F2200090412034E00690063006F0048006F00ED
:107F32006F006400000009023E0002010080320965
:107F420004000001020201000524001001042402C1
:107F5200020524060001070582030800FF09040147
:107F620000020A0000000705040220000107058341
:107F720002400001120110010200000841233700F3
:0E7F8200060201020001484C322E302E36005D
:107FA00007CBF1CAE3CADCCAD5CACDCABBCA089599
:087FB000089508950895089555
:107FE000DFCFDFCFDFCFDFCFDFCFDFCFDFCFDFCF21
:087FF000DFCFDFCFDFCFDFCFD1
:087FF8000070000000DFFBDC5B
:040000030000700089
:00000001FF
