:1070000039C0000094C0000092C0000090C0000091
:107010008EC000008CC000008AC0000088C0000044
:1070200086C0000084C0000082C00000AEC1000025
:107030007EC000007CC000007AC0000078C0000064
:1070400076C0000074C0000072C0000070C0000074
:107050006EC000006CC000006AC0000050C4000098
:107060003BC4000064C0000062C0000060C00000BB
:107070005EC0000011241FBECFEFD4E0DEBFCDBF45
:107080002091FF041092FF049091800210928002E0
:1070900084B714BE0FB6F894A8953091600038619B
:1070A00030936000109260000FBE5D9A5C9AE0E041
:1070B000F0E0459154914F3F5F4F21F181FF18C09F
:1070C000273701F19737F1F087E78093FF0480932A
:1070D00080028FEF9EE924E2815090402040E1F74A
:1070E00000C000001092FF04109280024BD10AC031
:1070F00080FF02C047D106C083FF04C0273711F0CC
:107100009737C1F713E0A2E8B2E0E0EEFEE702C075
:1071100005900D92AC31B107D9F723E0ACE1B3E0B3
:1071200001C01D92AD32B207E1F7F2D3D7C668CFE6
:107130008091240387FF0FC08091E80082FD04C086
:107140008BB58111F9CF10C08091E8008B770AC010
:107150008BB5882349F08091E80080FFF9CF8091BA
:10716000E8008E778093E80008958F708093E9009F
:10717000EBEEF0E0808181608083EDEEF0E0108244
:107180006093EC0040838091EE00881F8827881F61
:10719000089520912A0330912B032617370748F0D2
:1071A0006115710539F42091E8002E772093E800ED
:1071B00001C0B901FC0120E06115710559F18BB5E1
:1071C0008823D1F18530D1F18091E80083FD38C06A
:1071D0008091E80082FD2AC08091E80080FFECCF1A
:1071E0008091F20090E06115710551F088309105B1
:1071F00038F421912093F100615071090196F3CF89
:1072000021E0089709F020E08091E8008E778093D4
:10721000E800D2CF2111D3CF09C08BB5882361F00C
:10722000853061F08091E80083FD0AC08091E8001C
:1072300082FFF3CF80E0089582E0089583E008950F
:1072400081E00895CF935B9A1092C9001092C80014
:107250001092CA001EBA10922303109222031ABC85
:1072600020918302309184024091850250918602E0
:10727000211531054105510519F4109221034FC024
:10728000211581EE38074105510521F481E08093F5
:10729000210345C082E080932103809188028130E0
:1072A00021F0823021F4C0E203C0C0E301C0C0E09D
:1072B00080918702823009F4C8608091890287300A
:1072C00031F0883031F0863029F4C26003C0C460E8
:1072D00001C0C660DA01C901B695A7959795879553
:1072E000BC01CD0160587B47814E9F4FD5D52150C1
:1072F000310920FD04C0211580E1380720F03695C2
:10730000279580E001C082E03093CD002093CC002F
:10731000C093CA008093C80088E98093C9005B9835
:10732000CF91089593E09093E9009BB5992391F054
:107330009091E80090FFF9CF8093F10081E0860DF5
:107340008F3310F4682E0895612C8091E8008E77B9
:107350008093E800089584E08093E9008091E8003C
:1073600085FD0DC08091E8008B778093E8008091C7
:10737000E80082FDF3CF8BB58111F9CF02C0809177
:10738000F1000895E0E0F0E009941F920F920FB62B
:107390000F9211242F933F934F935F936F937F939B
:1073A0008F939F93AF93BF93EF93FF938091E100EF
:1073B00080FF15C08091E20080FF11C08091E20043
:1073C0008E7F8093E2008091E20080618093E200F2
:1073D0008091D80080628093D80019BC1BBC80913A
:1073E000E10084FF2DC08091E20084FF29C084E089
:1073F00089BD86E089BD09B400FEFDCF8091D8002B
:107400008F7D8093D8008091E1008F7E8093E10092
:107410008091E2008F7E8093E2008091E2008160A3
:107420008093E20080912C03882311F084E007C050
:107430008091E30087FD02C081E001C083E08BBD45
:107440008091E10083FF20C08091E20083FF1CC097
:107450008091E100877F8093E10082E08BBD1092F4
:107460002C038091E1008E7F8093E1008091E20007
:107470008E7F8093E2008091E20080618093E20041
:1074800042E060E080E071DEFF91EF91BF91AF914B
:107490009F918F917F916F915F914F913F912F912C
:1074A0000F900FBE0F901F9018959FB7F89407B6D6
:1074B00000FCFDCFF999FECF809529E0E1E0F0E0F6
:1074C000082E20935700E8959FBF0895E1E0F0E073
:1074D00089E0809357008491089529E0FC0120936E
:1074E00057008491089521E2FC0120935700849174
:1074F000089507B600FCFDCFF999FECF21E0FB010E
:107500000A0120935700E895112408952FB7F894A5
:1075100007B600FCFDCFF999FECF35E0FB013093B3
:107520005700E89507B600FCFDCF91E19093570016
:10753000E8952FBF08952FB7F89407B600FCFDCF4C
:10754000F999FECF33E0FB0130935700E89507B679
:1075500000FCFDCF91E190935700E8952FBF08956F
:107560007F928F929F92AF92BF92CF92DF92EF92D3
:10757000FF920F931F93CF93DF93612CECDE082FC4
:10758000853419F41092820207C088E8800F823097
:1075900010F0043521F4DFDE8DE0C4DE76C1003565
:1075A000D9F30C34C9F3043721F484E4BBDE80E062
:1075B000F4CF013611F489E5F0CF013491F4CBDE3C
:1075C000C82FC9DE2C2F30E0322F2227330F90E056
:1075D000880F991F822B932B092E000CAA0BBB0B33
:1075E00028C1003711F483E5D8CF033549F4C4E14D
:1075F000D3E0899197DE83E0CB31D807D1F745C13D
:10760000063521F481E38EDE80E3C7CF033731F402
:107610008AE888DE85E986DE8EE1BFCF053691F403
:10762000C12CD12C7601C701B60185DF80E8C80ED8
:10763000D11CE11CF11CC11480E7D806E104F1045F
:1076400091F7AACF0C3619F486DE2FDFA5CF0237CB
:1076500011F43CDFA2CF063419F4E0E0F0E009C0F9
:107660000E3419F4E3E0F0E004C0013539F4E2E04F
:10767000F0E089E08093570084918FCF023631F497
:1076800089E550DE80E04EDE80E887CF023419F0D5
:10769000073609F0B2C05FDEF82E5DDEC82F5BDE74
:1076A000182F8BEB810F823010F08FE376CFD0E074
:1076B000DF29073609F03EC000E0BB24B3942097D1
:1076C00009F4E3C0C0901D03D0901E03E0901F0397
:1076D000F09020031634B9F4E02FF0E0EC29FD29F6
:1076E000849120DE002369F082E0C80ED11CE11CE9
:1076F000F11CC0921D03D0921E03E0921F03F09272
:1077000020030B2515C0D701C601B695A7959795FF
:107710008795A8D307DE82E0C80ED11CE11CF11CBE
:10772000C0921D03D0921E03E0921F03F09220032B
:107730002197C5CF80901D0390901E03A0901F033A
:10774000B0902003163419F4C501B401F4DE712C95
:1077500000E0209709F44AC0163421F50023E9F02F
:10776000FADDC0901D03D0901E03E0901F03F0903F
:107770002003472D50E0582BC701B601BADE82E046
:10778000C80ED11CE11CF11CC0921D03D0921E0337
:10779000E0921F03F092200302C0DDDD782E81E02D
:1077A000082722C0D8DD682F80911D0390911E0309
:1077B000A0911F03B0912003B695A7959795879543
:1077C00059D380911D0390911E03A0911F03B09186
:1077D00020030296A11DB11D80931D0390931E03EB
:1077E000A0931F03B09320032197B3CF163409F061
:1077F000D3CEC501B4018ADECFCE043419F5ABDD9A
:10780000682F80911D0390911E03A0911F03B091DA
:107810002003B695A795979587952CD380911D0346
:1078200090911E03A0911F03B09120030296A11D09
:10783000B11D80931D0390931E03A0931F03B0936B
:107840002003AACE0436F1F4C0901D03D0901E038D
:10785000E0901F03F0902003D701C601B695A795CD
:1078600097958795FFD25EDD82E0C80ED11CE11CA2
:10787000F11CC0921D03D0921E03E0921F03F092F0
:10788000200303C00B3109F010CF662079F083E0AC
:107890008093E9008BB5882389F08091E80080FF10
:1078A000F9CF8091E8008E778093E80084E08093A0
:1078B000E9008091E8008B778093E800DF91CF9119
:1078C0001F910F91FF90EF90DF90CF90BF90AF90FE
:1078D0009F908F907F9008952F01EEB3F2E031904A
:1078E0003092CE00EEBBF798F2012EB23090230317
:1078F00023101895E8E9E093C900F201189530903B
:10790000CE002F01EAB5F1E03192EABDF2011895FF
:1079100090E080E80FB6F894809361009093610046
:107920000FBE91E095BF82E085BF809163008E7F9E
:107930008093630090931C031092E2001092E10088
:107940008091D8008F778093D8008091D80080688C
:107950008093D8008091D8008F7D8093D80084E0F8
:1079600089BD86E089BD09B400FEFDCF1BBC109225
:107970002C0342E060E080E0F8DB8091E1008E7F44
:107980008093E1008091E20081608093E200809129
:10799000E20088608093E2008091E0008E7F809317
:1079A000E00084E085BD3C9A449884B1806E84B93F
:1079B0008AB1886B8AB95F9A5A9A7894F12CE12C33
:1079C00001E010E0DBB41092E9008091E80083FF51
:1079D00087C1E4E2F3E08091F100819323E0EC328F
:1079E000F207C9F780912403982F9F77913209F00D
:1079F00073C090912503913299F4813A09F06CC0DB
:107A00008091E800877F8093E80067E070E083E87A
:107A100092E0BFDB8091E8008B778093E8005CC048
:107A20009032C9F5813209F057C08091E800877F14
:107A30008093E800E3E8F2E087E0882311F19BB54A
:107A4000992311F1953001F19091E80093FD1CC04C
:107A50009091E80092FFF1CF9091F200992329F0E4
:107A60009091F10091938150B9F79091E8009B7744
:107A70009093E800E2CF853039F08091E80080FDF6
:107A800003C08BB58111F7CF8091E8008E7780938A
:107A9000E800D8DB21C09232F9F48132E9F4809118
:107AA000E800877F8093E80043DB209126039091D4
:107AB0001A0085B1392F3072806C832B85B920FF75
:107AC00006C0992311F05F9807C02C9805C0992330
:107AD00011F05F9A01C02C9A8091E80083FFF2C0F8
:107AE0008091240390912503953009F46AC030F405
:107AF000913071F168F0933059F1E4C0983009F495
:107B0000A6C0993009F4B5C0963009F0DBC07BC03F
:107B1000803899F0823809F0D5C0809128038F70A1
:107B2000853008F0CFC08093E9008091EB0085FBA1
:107B3000882780F91092E90001C080E09091E80068
:107B4000977F9093E8008093F1001092F1008AC033
:107B5000282F2D7F09F0B6C0823009F0B3C0809184
:107B60002603811128C0809128038F702FEF280FE2
:107B7000243008F0A7C08093E9002091EB0020FF9B
:107B80001AC0933021F48091EB00806212C0909172
:107B9000EB0090619093EB00980102C0220F331F1D
:107BA0008A95E2F72093EA001092EA008091EB00B8
:107BB00088608093EB001092E9008091E800877F55
:107BC00054C081117FC0809126038F77C82E809189
:107BD000E30080788C298093E3008091E800877F20
:107BE0008093E800A5DA8091E80080FFFCCF8091C7
:107BF000E30080688093E300C11002C082E001C00E
:107C000083E08BBD5FC08058823008F05BC08091FC
:107C1000260330912703C32F90E0D92FC230D1051E
:107C200039F0C330D10549F0219709F04BC0FBC0B2
:107C30006EE370E084EC92E009C1882309F4F8C097
:107C4000813009F4FAC0823009F03CC0FBC08038B2
:107C5000C9F58091E800877F8093E80080912C032C
:107C60008093F1008091E8008E778093E80060DADD
:107C700029C0811127C0809126039091270399275D
:107C8000029704F58091E800877F8093E800C09018
:107C90002603C0922C034CDAC11006C08091E30089
:107CA00087FD02C081E001C084E08BBD42E061EC51
:107CB00082E05BDA46E361E883E057DA42E260E8BB
:107CC00084E053DA8091E80083FF0AC08091E800E5
:107CD000877F8093E8008091EB0080628093EB00C7
:107CE0008BB5843079F024E0D2126CCE10928302EE
:107CF000109284021092850210928602A3DA5D9A95
:107D00005C9A5CCE90918202911116C08FE99FE03F
:107D10000197F1F700C000008091E000816080933E
:107D2000E0009CE088E10FB6F894A895809360008D
:107D30000FBE90936000FFCF8093E9008091E80030
:107D400082FF0AC09091F200911107C08091E80073
:107D50008B778093E80001C090E08091210381300F
:107D600029F4992309F44DC0FBDB4BC0823009F0A4
:107D700048C0809123032EB3821B80958F7799236F
:107D8000B1F08917A0F0F2E0E09123038091F100B7
:107D90008193EF779150D1F78091E8008B778093B2
:107DA000E800E093230388EB8093C90002C08F377B
:107DB00019F05C9893E0F92E8AB590912203891B03
:107DC00001F1A89902C08F33C8F093E09093E900C5
:107DD0009091E80090FF12C08F3308F08FE3E0919C
:107DE0002203F1E091919093F1008150D1F78091BD
:107DF000E8008E778093E800E09322035D9883E0AB
:107E0000E82EA89BDFCD81E085BBEE2021F0EA942F
:107E1000E11001C05D9AFF2009F4D4CDFA94F1106D
:107E2000D1CD5C9ACFCD62E170E082E093E00EC0EC
:107E300064E070E08CEA92E009C062E170E080EBFF
:107E400092E004C060E270E08AE892E02091E800ED
:107E5000277F2093E8009DD98091E8008B7780935D
:107E6000E80030CFF999FECF92BD81BDF89A9927ED
:107E700080B50895262FF999FECF92BD81BDF89A5D
:107E8000019700B4021639F01FBA20BD0FB6F8945E
:107E9000FA9AF99A0FBE0895A1E21A2EAA1BBB1BEB
:107EA000FD010DC0AA1FBB1FEE1FFF1FA217B307C6
:107EB000E407F50720F0A21BB30BE40BF50B661FDC
:107EC000771F881F991F1A9469F7609570958095A0
:107ED00090959B01AC01BD01CF010895F894FFCFAF
:107EE0000100000000000008200348006F006F0040
:107EF00064004C006F006100640065007200320095
:107F0000200055006E006F000000040309041203F6
:107F10004E00690063006F0048006F006F0064004E
:107F2000000009023E000201008032090400000145
:107F300002020100052400100104240202052406A7
:107F40000001070582030800FF09040100020A007E
:107F5000000007050402200001070583024000011C
:107F60001201100102000008412343000602010231
:0A7F70000001484C322E302E36007E
:107FA000CACAB4CAA6CA9FCA98CA90CA7ECA089545
:087FB000089508950895089555
:107FE000DFCFDFCFDFCFDFCFDFCFDFCFDFCFDFCF21
:087FF000DFCFDFCFDFCFDFCFD1
:087FF8000070000000DFFBDC5B
:040000030000700089
:00000001FF
