:102C00007EC00000D9C00000D7C00000D5C00000C1
:102C1000D3C00000D1C00000CFC00000CDC0000074
:102C2000CBC00000C9C00000C7C00000EAC300005C
:102C3000C3C00000C1C00000BFC00000BDC0000094
:102C4000BBC00000B9C00000B7C00000B5C00000A4
:102C5000B3C00000B1C00000AFC0000097C10000C9
:102C60009EC10000A9C00000A7C00000A5C00000D0
:102C7000A3C0000009023E000201008032090400E6
:102C800000010202010005240010010424020205D3
:102C900024060001070582030800FF090401000261
:102CA0000A00000007050402200001070583024016
:102CB0000001120110010200000841234300060236
:102CC00001020001200348006F006F0064004C0007
:102CD0006F00610064006500720032002000550042
:102CE0006E006F00000012034E00690063006F0069
:102CF00048006F006F006400000004030904112401
:102D00001FBECFEFD2E0DEBFCDBF2091FF021092F9
:102D1000FF02909180021092800284B714BE0FB619
:102D2000F894A8953091600038613093600010925B
:102D300060000FBE5D9A5C9AF0E0E0E0459154912E
:102D40004F3F5F4F21F181FF18C0273701F19737BF
:102D5000F1F087E78093FF02809380028FEF9EE976
:102D600024E2815090402040E1F700C00000109222
:102D7000FF021092800221D00AC080FF02C01DD045
:102D800006C083FF04C0273711F09737C1F712E060
:102D9000A2E8B2E0EAE0FCE302C005900D92A2399D
:102DA000B107D9F722E0A2E9B2E001C01D92A33A2F
:102DB000B207E1F7B6D327C723CFF0E0E0E00994EC
:102DC00084E08093E9008091E80085FF03C0809152
:102DD000F1000CC08091E8008B778093E80080912F
:102DE000E80082FDF0CF8BB58111F9CF089593E013
:102DF0009093E9009BB5992391F09091E80090FFA2
:102E0000F9CF8093F10081E0860D8F3310F4682EA6
:102E10000895612C8091E8008E778093E8000895F2
:102E2000CF92DF92EF92FF921F93CF93DF9300D068
:102E300000D00F92CDB7DEB75B9A1092C900109206
:102E4000C8001092CA001EBA1092A1021092A002ED
:102E50001ABC2091820230918302409184025091E9
:102E60008502211531054105510581F41092A20218
:102E70005B980F900F900F900F900F90DF91CF9174
:102E80001F91FF90EF90DF90CF900895211581EE74
:102E900038074105510521F481E08093A202E8CF73
:102EA00082E08093A2028091870210E3813021F0BA
:102EB00010E2823009F010E080918602823009F43D
:102EC000186080918802873081F1883081F18630E6
:102ED00009F4126069017A01F694E794D794C794D3
:102EE000D701C60180589B47A14EBF4F89839A8363
:102EF000AB83BC83BC01CD014AD62150310920FDF2
:102F000005C082E0211590E1390718F03695279524
:102F100080E03093CD002093CC001093CA008093C2
:102F2000C80088E98093C900A3CF1460D3CF16608E
:102F3000D1CF8091980287FF11C08091E80082FF75
:102F400006C08091E8008B778093E80003C08BB5C2
:102F50008111F3CF08958BB58823E1F38091E800C8
:102F600080FFF9CF8091E8008E77EECF8093E90063
:102F7000EBEEF0E0808181608083EDEEF0E0108286
:102F80006093EC0040838091EE0008953090CE0075
:102F90002F01EAB5F1E03192EABDF20118952F0157
:102FA000EEB3F2E031903092CE00EEBBF798F20132
:102FB0002EB23090A10223101895E8E9E093C900E1
:102FC000F2011895FC0189E08093570084910895DF
:102FD000462F572F8FB7F89407B600FCFDCFF9990D
:102FE000FECF93E0FA0190935700E89507B600FCF6
:102FF000FDCF91E190935700E8958FBF0895462F3C
:10300000572F8FB7F89407B600FCFDCFF999FECF84
:1030100095E0FA0190935700E89507B600FCFDCFC4
:1030200091E190935700E8958FBF08950F931F93F8
:103030008B01CA0107B600FCFDCFF999FECF41E034
:10304000F8010C0140935700E89511241F910F914E
:103050000895FC0181E2809357008491089589E0EE
:10306000E1E0F0E080935700849108959FB7F894D1
:1030700007B600FCFDCFF999FECF809529E0E1E08D
:10308000F0E0082E20935700E8959FBF0895BF9267
:10309000CF92DF92EF92FF920F931F93CF93DF9324
:1030A000CDB7DEB72A970FB6F894DEBF0FBECDBFFF
:1030B000612C86DE8983853469F5109289028DE062
:1030C00096DE662079F083E08093E9008BB5882353
:1030D00089F08091E80080FFF9CF8091E8008E7739
:1030E0008093E80084E08093E9008091E8008B778A
:1030F0008093E8002A960FB6F894DEBF0FBECDBFCE
:10310000DF91CF911F910F91FF90EF90DF90CF90C3
:10311000BF90089589818857823018F0298124351D
:1031200011F44EDECCCF3981303549F23C3439F2DE
:103130004981443721F484E45ADE80E0C1CF5981CB
:1031400089E5513609F4BCCF89818134D9F438DE60
:10315000898336DE9981292F30E0322F2227330FE1
:1031600090E0880F991F822B932B092E000CAA0B3D
:10317000BB0B8093920290939302A0939402B0931E
:1031800095029DCFA98183E5A03709F499CFB98134
:10319000B33581F4EAE8F2E0FA83E983A981BA81E0
:1031A0008D91BA83A98323DEE981FA81E159F24046
:1031B000A9F787CF3981363521F481E318DE80E322
:1031C0007FCF4981433731F489E811DE84E90FDE8E
:1031D0008EE176CF5981553691F4C12CD12C7601F0
:1031E000C701B601F5DE80E8C80ED11CE11CF11C58
:1031F000C1149CE2D906E104F10491F760CFA981E2
:10320000AC3619F4DDDD32DF5ACFB981B23711F4B3
:1032100026DF56CFE981E63439F489E0F0E0E0E0DA
:103220008093570084914CCFF981FE3421F489E0DA
:10323000E3E0F0E0F5CF2981213521F489E0E2E0F7
:10324000F0E0EECF3981323631F489E5D0DD80E02F
:10325000CEDD80E835CF4981423419F0473609F098
:10326000CBC0AEDD182FACDD082FAADD8A878554D0
:10327000823010F08FE324CF5981573609F045C0D2
:103280001982BB24B39427C0C0909202D0909302BD
:10329000E0909402F09095028A85863401F5998138
:1032A000E92FF0E0EC29FD298491A1DDA981AA2371
:1032B00069F0B2E0CB0ED11CE11CF11CC09292026D
:1032C000D0929302E0929402F0929502E981EB256C
:1032D000E9830150110901151105B1F6F2CED701AC
:1032E000C601B695A7959795879573D480DDF2E0D2
:1032F000CF0ED11CE11CF11CC0929202D09293021D
:10330000E0929402F0929502E4CF209192023091E3
:103310009302409194025091950229833A834B8302
:103320005C833A85363429F469817A818B819C816A
:103330004FDE1986F12CEE24E3944A850115110520
:1033400049F4463409F0BBCE69817A818B819C8136
:1033500056DEB5CE463469F5FF2041F131DD2091CE
:1033600092023091930240919402509195022D83E4
:103370003E834F8358873985582F432F6D817E8137
:103380008F81988553DE8D819E81AF81B8850296AD
:10339000A11DB11D8093920290939302A093940279
:1033A000B0939502FE2401501109C7CF09DD89872A
:1033B000F9CF06DD682F8091920290919302A0913F
:1033C0009402B0919502B695A7959795879509D4E3
:1033D0008091920290919302A0919402B0919502F3
:1033E0000296A11DB11D8093920290939302A09327
:1033F0009402B0939502D7CF59815B3109F461CE25
:1034000039CF1F920F920FB60F9211242F933F9333
:103410004F935F936F937F938F939F93AF93BF93DC
:10342000EF93FF938091E10080FF15C08091E2004F
:1034300080FF11C08091E2008E7F8093E200809136
:10344000E20080618093E2008091D80080628093E6
:10345000D80019BC1BBC8091E10084FF25C080917D
:10346000E20084FF21C084E089BD86E089BD09B403
:1034700000FEFDCF8091D8008F7D8093D800809191
:10348000E1008F7E8093E1008091E2008F7E809347
:10349000E2008091E20081608093E20080919702D7
:1034A0008823B9F184E08BBD8091E10083FF20C0C7
:1034B0008091E20083FF1CC08091E100877F8093B0
:1034C000E10082E08BBD109297028091E1008E7F37
:1034D0008093E1008091E2008E7F8093E2008091F2
:1034E000E20080618093E20042E060E080E03EDD47
:1034F000FF91EF91BF91AF919F918F917F916F91CC
:103500005F914F913F912F910F900FBE0F901F90A1
:1035100018958091E30087FD02C081E0C4CF83E06D
:10352000C2CF00D00F92CDB7DEB780E890E00FB6E3
:10353000F89480936100909361000FBE91E095BF75
:1035400082E085BF809163008E7F809363009093BB
:1035500096021092E2001092E1008091D8008F77DD
:103560008093D8008091D80080688093D8008091A3
:10357000D8008F7D8093D80084E089BD86E089BD26
:1035800009B400FEFDCF1BBC1092970242E060E040
:1035900080E0ECDC8091E1008E7F8093E1008091FF
:1035A000E20081608093E2008091E2008860809375
:1035B000E2008091E0008E7F8093E00084E085BD92
:1035C0008AB1886B8AB95F9A5A9A789434ECA32EA0
:1035D0003CE2B32E06EE1CE24AEFE42E4CE2F42E5F
:1035E000812C912CCC24C394D12C2BB529831092FF
:1035F000E9008091E80083FF89C088E992E0FC013E
:1036000001962091F100208332E0803A9307B9F7C8
:1036100080919802982F9F77913209F054C0909131
:103620009902913209F08DC0813A09F04CC0809125
:10363000E800877F8093E80080919E0290919F022E
:103640008730910510F087E090E040E0E2E8F2E09A
:1036500024C02BB5222391F1253081F12091E8007F
:1036600023FD2CC02091E80022FD1BC02091E80022
:1036700020FF13C02091F20030E0009721F02830A5
:10368000310508F457C041E02830310509F040E029
:103690002091E8002E772093E8000097D1F64111A1
:1036A000D8CF8091E80082FD09C08BB5882331F026
:1036B000853021F08091E80083FFF3CF8091E8000E
:1036C0008B778093E8008091E80083FF11C0909190
:1036D000980280919902853009F401C108F080C0F8
:1036E000282F2D7F213009F4C2C0882309F49EC001
:1036F0008091E80083FF0AC08091E800877F809373
:10370000E8008091EB0080628093EB008BB5843001
:1037100009F4ACC12981243009F067CF10928202EC
:1037200010928302109284021092850279DB5D9AD6
:103730005C9A56CF41914093F10001972F5F3F4F24
:103740009CCF9032C9F5813209F0BDCF8091E8005D
:10375000877F8093E800E2E8F2E087E0811110C003
:103760008BB5882331F0853021F08091E80080FF0F
:10377000F7CF8091E8008E778093E80051DBA3CFEC
:103780009BB59923B1F39530A1F39091E80093FD97
:10379000F0CF9091E80092FFE1CF9091F200992351
:1037A00029F09091F10091938150B9F79091E80040
:1037B0009B779093E800D2CF923209F084CF813288
:1037C00009F081CF8091E800877F8093E800B1DB2A
:1037D00080919A0280FF02C05F9875CF5F9A73CF85
:1037E000883009F40FC1893009F419C1863009F015
:1037F0007FCF9058923008F07BCF80919A02F09161
:103800009B02FA831B822A813B812230310509F415
:10381000C8C02330310509F483C02130310509F0D7
:1038200067CF22E130E0E2EBFCE285C0903891F016
:10383000923809F05DCF80919C028F70853008F03E
:1038400057CF8093E9008091EB0085FB882780F9B2
:103850001092E9009091E800977F9093E8008093A0
:10386000F1001092F1008091E8008E7721C0923033
:1038700009F03ECF90919A02911115C090919C024F
:103880009F702FEF290F243008F032CF9093E9007A
:103890002091EB0020FF07C0833071F48091EB0092
:1038A00080628093EB001092E9008091E800877FAE
:1038B0008093E8003EDB1CCF8091EB008061809319
:1038C000EB00F60102C0EE0FFF1F9A95E2F7E093BE
:1038D000EA001092EA008091EB008860E2CF91113B
:1038E00007CF80919A02782EE89477F88091E300D0
:1038F000807887298093E3008091E800877F809318
:10390000E80017DB8091E80080FFFCCF8091E300A6
:1039100080688093E30082E0711083E08BBDE8CE85
:1039200081112EC0F701249130E0EAEFFCE221156D
:10393000310509F4DDCE8091E800877F8093E800AF
:1039400080919E0290919F022817390708F4C901BF
:1039500040E0009759F5411129C08091E80082FDAF
:1039600009C08BB5882331F0853021F08091E800C3
:1039700083FFF3CF8091E8008B778093E800B8CE87
:10398000813031F4F801249130E0E6EEFCE2CFCF53
:10399000823009F0ADCEF501249130E0E4ECFCE298
:1039A000C6CF2EE330E0E4E7FCE2C5CF2BB52223FF
:1039B00009F32530F9F22091E80023FDDBCF2091B7
:1039C000E80022FDCACF2091E80020FFC2CF20915D
:1039D000F20030E0009719F02830310558F041E04E
:1039E0002830310509F040E02091E8002E7720933F
:1039F000E800AFCF44914093F100319601972F5FDB
:103A00003F4FE8CF903809F073CE8091E800877F70
:103A10008093E800809197028093F10024CF911168
:103A200067CE70909A02F1E0F71508F461CE8091AC
:103A3000E800877F8093E800709297027ADA772017
:103A400011F084E005C08091E30087FDFACF81E0AA
:103A50008BBD42E061EC82E089DA46E361E883E015
:103A600085DA42E260E884E081DA42CE9091890210
:103A7000911116C08FE99FE00197F1F700C0000097
:103A80008091E00081608093E00088E19CE00FB6C7
:103A9000F894A895809360000FBE90936000FFCFCC
:103AA0008093E9008091E800982F947082FF09C00C
:103AB0009091F200911105C08091E8008B7780937E
:103AC000E8008091A2028130A1F49111E0DAA89B74
:103AD0008CCD91E095BB992021F09A94911001C072
:103AE0005D9A882009F481CD8A9481107ECD5C9AFC
:103AF0007CCD823061F78091A1022EB3821B80952C
:103B00008F779923C9F08917B8F0F2E0E091A1020C
:103B10008091F1008193EF779150D1F78091E80087
:103B20008B778093E800E093A10288EB8093C90033
:103B30005C9893E0892E02C08F37D1F72AB5909117
:103B4000A002822F891B291709F4C1CFA89902C0AE
:103B50008F33C8F093E09093E9009091E80090FFD4
:103B600012C08F3308F08FE3E091A002F1E0919151
:103B70009093F1008150D1F78091E8008E77809387
:103B8000E800E093A0025D9883E0982EA0CFA1E228
:103B90001A2EAA1BBB1BFD010DC0AA1FBB1FEE1FC7
:103BA000FF1FA217B307E407F50720F0A21BB30B12
:103BB000E40BF50B661F771F881F991F1A9469F78E
:103BC00060957095809590959B01AC01BD01CF01EA
:103BD0000895F999FECF92BD81BDF89A992780B5D5
:103BE0000895262FF999FECF92BD81BDF89A0197CD
:103BF00000B4021639F01FBA20BD0FB6F894FA9A35
:0A3C0000F99A0FBE0895F894FFCF63
:103C0A000000000000000801484C322E302E360019
:103FA00017C82DC843C855C80DC859C85FC808955B
:083FB000089508950895089595
:103FE000DFCFDFCFDFCFDFCFDFCFDFCFDFCFDFCF61
:083FF000DFCFDFCFDFCFDFCF11
:083FF800002C000000DFFBDCDF
:0400000300002C00CD
:00000001FF
