:1030000039C0000071C000006FC000006DC000003A
:103010006BC0000069C0000067C0000065C0000010
:1030200063C0000061C000005FC0000056C5000022
:103030005BC0000059C0000057C0000055C0000030
:1030400053C0000051C00000D5C100004DC00000B9
:103050004BC0000049C0000047C0000045C0000050
:1030600043C0000041C000003FC000003DC0000060
:103070003BC0000011241FBECFEFD2E0DEBFCDBFAA
:1030800004B603FE1CC080918501909186018234B4
:103090009C4DA9F484B7877F84BF0FB6F894A89598
:1030A00080916000886180936000109260000FBE84
:1030B0001092860110928501E0E0F0E0099511E0A0
:1030C000A0E0B1E0EAEBFDE302C005900D92A83666
:1030D000B107D9F721E0A8E6B1E001C01D92A538FB
:1030E000B207E1F73ED167C68BCF8823A9F0909154
:1030F000F20091110DC09091E8009B7F9093E80041
:103100009091E80092FD06C09EB39111F9CF04C0E2
:103110009091F1008150E9CF0895E0E7F1E0358129
:1031200024819381828190936A0180936B01C9010C
:10313000909368018093690108951F93CF93DF9363
:10314000CDB7DEB727970FB6F894DEBF0FBECDBF61
:1031500090917A01809170019923D1F0843049F4E3
:1031600080917101811108C0809172018F3F21F41B
:103170005AC0853009F4ACC08AE08093000183E036
:10318000809378018091EB0080628093EB00DFC038
:10319000843009F448C028F4813051F08330F1F0D4
:1031A000D6C0853009F494C0863009F4C4C0CFC0BD
:1031B00010917101123008F0CAC0AFDF11110CC0BC
:1031C00080916A0190916B0123E0FC0120935700EC
:1031D000E89507B600FCFDCF85E007C0809171013E
:1031E000982F9D7F29F499DF89E080930001AFC07B
:1031F000813009F0ACC0E0E0F0E084918F3F69F0ED
:1032000010926C01F0936B01E0936A018AE0809365
:10321000000185E0809378019AC03196E11520E3A2
:10322000F20759F794C080917101833069F581E00C
:10323000809379012091760130917701809172011C
:10324000232B61F0813009F082C09091750180914B
:10325000740190936D0180936E0179C0811111C04A
:1032600082E49CED90938601809385019CE088E147
:103270000FB6F894A895809360000FBE90936000FD
:1032800066C01092010163C0811161C0809172011A
:103290008F3F09F05CC0E0E0F0E083E095E08093D0
:1032A0005700E89507B600FCFDCF90935700E895CE
:1032B00007B600FCFDCFE058FF4FE11520E3F20711
:1032C00071F781E180935700E89510927A013FC031
:1032D0008091020190910301A09104018D839E834E
:1032E000AF838091050190910601A0910701B091F3
:1032F000080189839A83AB83BC83209172018091FA
:103300007101811105C0FE01E20FF11D858110C020
:103310008130E9F4822F90E0203618F4E1EDFFEFE0
:1033200002C0E4EAFFEFEC0FFD1FE80FF91F8081F8
:1033300080936F010CC080917101833041F48091C2
:103340007201811104C08091730180936C012796F2
:103350000FB6F894DEBF0FBECDBFDF91CF911F91A6
:10336000089584B7877F84BF0FB6F894A89580919D
:103370006000886180936000109260000FBE90E052
:1033800080E80FB6F89480936100909361000FBEBF
:10339000C1E0C5BF82E085BF91D38AB180638AB99D
:1033A0008BB180638BB9C0936F0083E08093810001
:1033B0008BB180638F7D8BB97894809101018823D4
:1033C00011F0DBD4FACF809179018111FACF2DD39E
:1033D0008AB18F7C8AB98BB180638BB910926F00F0
:1033E0001092810081E085BF15BEE0916D01F091E2
:1033F0006E0109951F920F920FB60F9211248F93B1
:1034000080E389B98F910F900FBE0F901F90189590
:103410008F929F92AF92BF92CF92DF92EF92FF92E4
:103420000F931F93CF93DF9380917D018F7781322C
:1034300009F0E3C180E389B980918301909184010F
:10344000909377018093760180917E01833009F417
:1034500091C158F48130D1F0823009F0CEC1809111
:10346000E800877F8093E800FEC0853009F4A8C19A
:1034700008F49EC1863009F0C0C18091E800877FC2
:103480008093E80082E080930001AAC18091E80067
:10349000877F8093E80080917901882319F04DDEC1
:1034A000109279018091760190917701009741F116
:1034B0002091E80022FD04C02EB32111F9CF9DC157
:1034C0002091F100209370010197909377018093F0
:1034D0007601E1E7F1E08091F200882381F08091AC
:1034E000F1008193809176019091770101979093FB
:1034F00077018093760121E0E637F20761F71DDE60
:1035000080910001853009F0A6C0809176019091EC
:103510007701892B21F482E0809300019CC08AE12D
:10352000E4DD00916A0110916B01802F8F71DDDD68
:1035300080916801909169010196EC01C01BD10B4B
:1035400080917101811175C0CE0196958795A80172
:1035500020916C01622F70E04A015B0120E0C1E024
:10356000D5E013E0009709F442C03091F200332314
:10357000D1F00197E091F1003091F100AE2FB32F1F
:10358000FA010D01C0935700E89511242F5F6A01DD
:103590007B01F2E0CF0ED11CE11CF11CB701A601AA
:1035A000203471F40FC03091E8003B7F3093E80085
:1035B0003091E80032FDDDCF3EB33111F9CF1DC1AE
:1035C000009781F6F401D0935700E89507B600FC08
:1035D000FDCF009709F4C6CFF60110935700E89588
:1035E00007B600FCFDCF4601570120E0BBCF80911C
:1035F00068019091690190936B0180936A0181E168
:1036000080935700E89525C08091F2008823A1F0AF
:1036100021976091F10080916A0190916B01BDD377
:1036200080916A0190916B01019690936B01809358
:103630006A01209749F70DC08091E8008B7F809345
:10364000E8008091E80082FDE3CF8EB38111F9CFCD
:10365000D4C080E14ADD8091E8008B7F88C08EB3C2
:10366000882309F4CAC08091E80080FFF8CF8091D8
:103670000001893091F08A3059F4809171018130D4
:1036800039F490916A0180916B019093F10002C02E
:1036900080916F018093F10067C020916A013091A1
:1036A0006B01C0916801D09169012196C21BD30BB7
:1036B0008091710181112EC0D695C795C9012091C5
:1036C0006C01A22FB0E02197E0F02091F2002032AF
:1036D00059F0FC01259134912093F1003093F100D1
:1036E0000296A11DB11DEFCF2091E8002E7F2093FF
:1036F000E8002091E80020FDECCF2EB32111F9CF96
:103700007CC0809168019091690190936B018093D6
:103710006A0127C0823029F5209719F18091F200C3
:10372000803291F080916A0190916B012ED3809349
:10373000F10080916A0190916B01019690936B0169
:1037400080936A012197E8CF8091E8008E7F809373
:10375000E8008091E80080FDE5CF8EB38111F9CFBC
:103760004CC082E0809300018091E8008E7F8093BE
:10377000E80036C08091E800877F8093E800809160
:10378000E80080FD04C08EB38111F9CF36C080916E
:1037900078018093F1001092F1001092F1001092E4
:1037A000F100809100018093F1001092F100DCCFD4
:1037B0008091E800877F8093E8001092780110C024
:1037C0008091E800877F8093E8008091E80080FD89
:1037D00004C08EB38111F9CF10C0809100015ACF7F
:1037E000DF91CF911F910F91FF90EF90DF90CF90DD
:1037F000BF90AF909F908F90FBC0DF91CF911F91B2
:103800000F91FF90EF90DF90CF90BF90AF909F907F
:103810008F900895292F30E02230310559F0233060
:10382000310569F021303105F9F482E190E026E5B7
:1038300031E01EC08BE190E02BE331E019C088231A
:1038400049F0813061F0823079F482E190E029E042
:1038500031E00EC084E090E027E331E009C088E168
:1038600090E02DE131E004C080E090E020E030E025
:10387000FA0131832083089507B600FCFDCFF99942
:10388000FECF23E0FB0120935700E89507B600FC2C
:10389000FDCF81E180935700E895089507B600FCBD
:1038A000FDCFF999FECF25E0FB0120935700E89565
:1038B00007B600FCFDCF81E180935700E89508959D
:1038C00007B600FCFDCFF999FECF21E0FB010A010C
:1038D00020935700E8951124089521E2FC012093DC
:1038E00057008491089529E0FC01209357008491AA
:1038F0000895E1E0F0E089E0809357008491089515
:1039000007B600FCFDCFF999FECF809599E0E1E084
:10391000F0E0082E90935700E895089520918301D8
:10392000309184012617370748F06115710539F485
:103930002091E8002E7F2093E80001C0B901FC012E
:1039400020E06115710559F18EB38823D1F18530DE
:10395000D1F18091E80083FD38C08091E80082FDBC
:103960002AC08091E80080FFECCF8091F20090E0C7
:103970006115710551F08032910538F42191209341
:10398000F100615071090196F3CF21E0809709F0B1
:1039900020E08091E8008E7F8093E800D2CF211153
:1039A000D3CF09C08EB3882361F0853061F0809158
:1039B000E80083FD0AC08091E80082FFF3CF80E039
:1039C000089582E0089583E0089581E00895EBEE84
:1039D000F0E0808181608083EDEEF0E01082609302
:1039E000EC0040838091EE00881F8827881F08958F
:1039F00080917D0187FF0FC08091E80082FD04C0A7
:103A00008EB38111F9CF10C08091E8008B7F0AC07E
:103A10008EB3882349F08091E80080FFF9CF809130
:103A2000E8008E7F8093E800089551D053D0E0EEF7
:103A3000F0E0808181608083E8EDF0E080818F7725
:103A4000808319BCE3E6F0E080818160808310927E
:103A50007C0108953CD03ED08091D8008F77809330
:103A6000D8008091D80080688093D8008091D800D9
:103A70008F7D8093D80084E089BD86E089BD09B43C
:103A800000FEFDCF1EBA10927B0142E260E080E0B2
:103A90009EDF8091E1008E7F8093E1008091E200C3
:103AA00081608093E2008091E20088608093E20070
:103AB0008091E0008E7F8093E0000895E3E6F0E0DF
:103AC00080818E7F808381E080937C01C3CF1092C0
:103AD000E20008951092E10008951F920F920FB630
:103AE0000F9211242F933F934F935F936F937F9384
:103AF0008F939F93AF93BF93EF93FF938091E100D8
:103B000080FF16C08091E20080FF12C08091E20029
:103B10008E7F8093E2008091E20080618093E200DA
:103B20008091D80080628093D80019BC1EBA24D13D
:103B30008091E10084FF2EC08091E20084FF2AC0C2
:103B400084E089BD86E089BD09B400FEFDCF809187
:103B5000D8008F7D8093D8008091E1008F7E809384
:103B6000E1008091E2008F7E8093E2008091E2008C
:103B700081608093E20080917B01882311F084E0D2
:103B800007C08091E30087FD02C081E001C083E0AF
:103B90008EBBF2D08091E10083FF21C08091E200D2
:103BA00083FF1DC08091E100877F8093E10082E068
:103BB0008EBB10927B018091E1008E7F8093E100AB
:103BC0008091E2008E7F8093E2008091E20080612C
:103BD0008093E20042E260E080E0F9DECDD0FF9128
:103BE000EF91BF91AF919F918F917F916F915F9175
:103BF0004F913F912F910F900FBE0F901F901895EE
:103C00001F93CF93DF9300D0CDB7DEB7EDE7F1E0A0
:103C10008091F100819381E0E538F807C9F7F8DB7E
:103C20008091E80083FF94C080917D0190917E0196
:103C30009630E1F128F4992351F09530B1F088C025
:103C4000983009F453C0993009F462C081C08D7F67
:103C5000803809F07DC08091E800877F8093E8007C
:103C60001092F1001092F1004CC0811171C01091BE
:103C70007F011F778091E3008078812B8093E300A0
:103C80008091E800877F8093E800B2DE8091E800B1
:103C900080FFFCCF8091E30080688093E3001111E6
:103CA00002C082E001C083E08EBB52C080588230E7
:103CB00008F04EC0AE014F5F5F4F6091810180916F
:103CC0007F0190918001A6DDBC01892B09F440C0E1
:103CD0009091E800977F9093E80089819A811EDE99
:103CE0008091E8008B7F8093E80032C0803881F5B6
:103CF0008091E800877F8093E80080917B0180932A
:103D0000F1008091E8008E7F8093E80071DE20C092
:103D100081111EC080917F019091800199270297A7
:103D2000BCF48091E800877F8093E80080917F0158
:103D300080937B015DDE80917B01811106C08091C3
:103D4000E30087FD02C081E001C084E08EBB14D097
:103D50008091E80083FF0AC08091E800877F80930C
:103D6000E8008091EB0080628093EB000F900F9051
:103D7000DF91CF911F91089508958EB3882321F08C
:103D80008091E80083FD3CCF0895F999FECF92BD64
:103D900081BDF89A992780B50895262FF999FECF0D
:103DA0001FBA92BD81BD20BD0FB6F894FA9AF99A58
:0A3DB0000FBE01960895F894FFCFAE
:103DBA00020120DCFB581E948912034C0055004670
:103DCA00004100200044004600550000001803444A
:103DDA0000650061006E002000430061006D00650F
:103DEA00007200610000000403090409021B0001BB
:103DFA00010080320904000000FE010200092103CB
:103E0A000000000C10011201100100000020EB0359
:083E1A00EF2F0000010200017E
:103FA0006BCC7CCC8DCC99CC9ECCA3CCA9CC0895E9
:083FB000089508950895089595
:103FE000DFCFDFCFDFCFDFCFDFCFDFCFDFCFDFCF61
:083FF000DFCFDFCFDFCFDFCF11
:083FF8000030000010DFFBDCCB
:0400000300003000C9
:00000001FF
